{
  "_format": "hh-sol-artifact-1",
  "contractName": "Voting",
  "sourceName": "contracts/Voting.sol",
  "abi": [
    {
      "inputs": [
        {
          "internalType": "string[]",
          "name": "_candidateNames",
          "type": "string[]"
        },
        {
          "internalType": "uint256",
          "name": "_durationInMinutes",
          "type": "uint256"
        }
      ],
      "stateMutability": "nonpayable",
      "type": "constructor"
    },
    {
      "inputs": [
        {
          "internalType": "string",
          "name": "_name",
          "type": "string"
        }
      ],
      "name": "addCandidate",
      "outputs": [],
      "stateMutability": "nonpayable",
      "type": "function"
    },
    {
      "inputs": [
        {
          "internalType": "uint256",
          "name": "",
          "type": "uint256"
        }
      ],
      "name": "candidates",
      "outputs": [
        {
          "internalType": "string",
          "name": "name",
          "type": "string"
        },
        {
          "internalType": "uint256",
          "name": "voteCount",
          "type": "uint256"
        }
      ],
      "stateMutability": "view",
      "type": "function"
    },
    {
      "inputs": [],
      "name": "getAllVotesOfCandiates",
      "outputs": [
        {
          "components": [
            {
              "internalType": "string",
              "name": "name",
              "type": "string"
            },
            {
              "internalType": "uint256",
              "name": "voteCount",
              "type": "uint256"
            }
          ],
          "internalType": "struct Voting.Candidate[]",
          "name": "",
          "type": "tuple[]"
        }
      ],
      "stateMutability": "view",
      "type": "function"
    },
    {
      "inputs": [],
      "name": "getRemainingTime",
      "outputs": [
        {
          "internalType": "uint256",
          "name": "",
          "type": "uint256"
        }
      ],
      "stateMutability": "view",
      "type": "function"
    },
    {
      "inputs": [],
      "name": "getVotingStatus",
      "outputs": [
        {
          "internalType": "bool",
          "name": "",
          "type": "bool"
        }
      ],
      "stateMutability": "view",
      "type": "function"
    },
    {
      "inputs": [],
      "name": "getWinners",
      "outputs": [
        {
          "components": [
            {
              "internalType": "string",
              "name": "name",
              "type": "string"
            },
            {
              "internalType": "uint256",
              "name": "voteCount",
              "type": "uint256"
            }
          ],
          "internalType": "struct Voting.Candidate[]",
          "name": "",
          "type": "tuple[]"
        }
      ],
      "stateMutability": "view",
      "type": "function"
    },
    {
      "inputs": [],
      "name": "resultsPublished",
      "outputs": [
        {
          "internalType": "bool",
          "name": "",
          "type": "bool"
        }
      ],
      "stateMutability": "view",
      "type": "function"
    },
    {
      "inputs": [
        {
          "internalType": "uint256",
          "name": "_candidateIndex",
          "type": "uint256"
        }
      ],
      "name": "vote",
      "outputs": [],
      "stateMutability": "nonpayable",
      "type": "function"
    },
    {
      "inputs": [
        {
          "internalType": "address",
          "name": "",
          "type": "address"
        }
      ],
      "name": "voters",
      "outputs": [
        {
          "internalType": "bool",
          "name": "",
          "type": "bool"
        }
      ],
      "stateMutability": "view",
      "type": "function"
    },
    {
      "inputs": [],
      "name": "votingEnd",
      "outputs": [
        {
          "internalType": "uint256",
          "name": "",
          "type": "uint256"
        }
      ],
      "stateMutability": "view",
      "type": "function"
    },
    {
      "inputs": [],
      "name": "votingStart",
      "outputs": [
        {
          "internalType": "uint256",
          "name": "",
          "type": "uint256"
        }
      ],
      "stateMutability": "view",
      "type": "function"
    }
  ],
  "bytecode": "0x60806040523480156200001157600080fd5b5060405162001a3938038062001a398339818101604052810190620000379190620004d9565b60005b8251811015620000e357600160405180604001604052808584815181106200006757620000666200053f565b5b60200260200101518152602001600081525090806001815401808255809150506001900390600052602060002090600202016000909190919091506000820151816000019080519060200190620000c092919062000155565b506020820151816001015550508080620000da906200059d565b9150506200003a565b50336000806101000a81548173ffffffffffffffffffffffffffffffffffffffff021916908373ffffffffffffffffffffffffffffffffffffffff16021790555042600481905550603c816200013a9190620005eb565b426200014791906200064c565b60058190555050506200070e565b8280546200016390620006d8565b90600052602060002090601f016020900481019282620001875760008555620001d3565b82601f10620001a257805160ff1916838001178555620001d3565b82800160010185558215620001d3579182015b82811115620001d2578251825591602001919060010190620001b5565b5b509050620001e29190620001e6565b5090565b5b8082111562000201576000816000905550600101620001e7565b5090565b6000604051905090565b600080fd5b600080fd5b600080fd5b6000601f19601f8301169050919050565b7f4e487b7100000000000000000000000000000000000000000000000000000000600052604160045260246000fd5b62000269826200021e565b810181811067ffffffffffffffff821117156200028b576200028a6200022f565b5b80604052505050565b6000620002a062000205565b9050620002ae82826200025e565b919050565b600067ffffffffffffffff821115620002d157620002d06200022f565b5b602082029050602081019050919050565b600080fd5b600080fd5b600067ffffffffffffffff8211156200030a57620003096200022f565b5b62000315826200021e565b9050602081019050919050565b60005b838110156200034257808201518184015260208101905062000325565b8381111562000352576000848401525b50505050565b60006200036f6200036984620002ec565b62000294565b9050828152602081018484840111156200038e576200038d620002e7565b5b6200039b84828562000322565b509392505050565b600082601f830112620003bb57620003ba62000219565b5b8151620003cd84826020860162000358565b91505092915050565b6000620003ed620003e784620002b3565b62000294565b90508083825260208201905060208402830185811115620004135762000412620002e2565b5b835b818110156200046157805167ffffffffffffffff8111156200043c576200043b62000219565b5b8086016200044b8982620003a3565b8552602085019450505060208101905062000415565b5050509392505050565b600082601f83011262000483576200048262000219565b5b815162000495848260208601620003d6565b91505092915050565b6000819050919050565b620004b3816200049e565b8114620004bf57600080fd5b50565b600081519050620004d381620004a8565b92915050565b60008060408385031215620004f357620004f26200020f565b5b600083015167ffffffffffffffff81111562000514576200051362000214565b5b62000522858286016200046b565b92505060206200053585828601620004c2565b9150509250929050565b7f4e487b7100000000000000000000000000000000000000000000000000000000600052603260045260246000fd5b7f4e487b7100000000000000000000000000000000000000000000000000000000600052601160045260246000fd5b6000620005aa826200049e565b91507fffffffffffffffffffffffffffffffffffffffffffffffffffffffffffffffff821415620005e057620005df6200056e565b5b600182019050919050565b6000620005f8826200049e565b915062000605836200049e565b9250817fffffffffffffffffffffffffffffffffffffffffffffffffffffffffffffffff04831182151516156200064157620006406200056e565b5b828202905092915050565b600062000659826200049e565b915062000666836200049e565b9250827fffffffffffffffffffffffffffffffffffffffffffffffffffffffffffffffff038211156200069e576200069d6200056e565b5b828201905092915050565b7f4e487b7100000000000000000000000000000000000000000000000000000000600052602260045260246000fd5b60006002820490506001821680620006f157607f821691505b60208210811415620007085762000707620006a9565b5b50919050565b61131b806200071e6000396000f3fe608060405234801561001057600080fd5b50600436106100a95760003560e01c8063581c281c11610071578063581c281c146101535780635f5895991461017157806385a386351461018f578063a3ec138d146101ad578063df15c37e146101dd578063efb98bcf146101fb576100a9565b80630121b93f146100ae578063101158af146100ca5780633477ee2e146100e8578063462e91ec146101195780634d6bda5f14610135575b600080fd5b6100c860048036038101906100c39190610ab4565b610219565b005b6100d26103c7565b6040516100df9190610af0565b60405180910390f35b61010260048036038101906100fd9190610ab4565b6103cd565b604051610110929190610ba4565b60405180910390f35b610133600480360381019061012e9190610d09565b610489565b005b61013d610584565b60405161014a9190610eaa565b60405180910390f35b61015b61067f565b6040516101689190610ee7565b60405180910390f35b610179610699565b6040516101869190610ee7565b60405180910390f35b6101976106ac565b6040516101a49190610af0565b60405180910390f35b6101c760048036038101906101c29190610f60565b6106b2565b6040516101d49190610ee7565b60405180910390f35b6101e56106d2565b6040516101f29190610eaa565b60405180910390f35b610203610940565b6040516102109190610af0565b60405180910390f35b600260003373ffffffffffffffffffffffffffffffffffffffff1673ffffffffffffffffffffffffffffffffffffffff16815260200190815260200160002060009054906101000a900460ff16156102a6576040517f08c379a000000000000000000000000000000000000000000000000000000000815260040161029d90610fd9565b60405180910390fd5b60018054905081106102ed576040517f08c379a00000000000000000000000000000000000000000000000000000000081526004016102e490611045565b60405180910390fd5b6005544210610331576040517f08c379a0000000000000000000000000000000000000000000000000000000008152600401610328906110b1565b60405180910390fd5b60018181548110610345576103446110d1565b5b906000526020600020906002020160010160008154809291906103679061112f565b91905055506001600260003373ffffffffffffffffffffffffffffffffffffffff1673ffffffffffffffffffffffffffffffffffffffff16815260200190815260200160002060006101000a81548160ff02191690831515021790555050565b60045481565b600181815481106103dd57600080fd5b9060005260206000209060020201600091509050806000018054610400906111a7565b80601f016020809104026020016040519081016040528092919081815260200182805461042c906111a7565b80156104795780601f1061044e57610100808354040283529160200191610479565b820191906000526020600020905b81548152906001019060200180831161045c57829003601f168201915b5050505050908060010154905082565b60008054906101000a900473ffffffffffffffffffffffffffffffffffffffff1673ffffffffffffffffffffffffffffffffffffffff163373ffffffffffffffffffffffffffffffffffffffff1614610517576040517f08c379a000000000000000000000000000000000000000000000000000000000815260040161050e90611225565b60405180910390fd5b600160405180604001604052808381526020016000815250908060018154018082558091505060019003906000526020600020906002020160009091909190915060008201518160000190805190602001906105749291906109ad565b5060208201518160010155505050565b60606001805480602002602001604051908101604052809291908181526020016000905b8282101561067657838290600052602060002090600202016040518060400160405290816000820180546105db906111a7565b80601f0160208091040260200160405190810160405280929190818152602001828054610607906111a7565b80156106545780601f1061062957610100808354040283529160200191610654565b820191906000526020600020905b81548152906001019060200180831161063757829003601f168201915b50505050508152602001600182015481525050815260200190600101906105a8565b50505050905090565b60006004544210158015610694575060055442105b905090565b600360009054906101000a900460ff1681565b60055481565b60026020528060005260406000206000915054906101000a900460ff1681565b606060008060005b6001805490508110156107955782600182815481106106fc576106fb6110d1565b5b90600052602060002090600202016001015411156107455760018181548110610728576107276110d1565b5b906000526020600020906002020160010154925060019150610782565b826001828154811061075a576107596110d1565b5b906000526020600020906002020160010154141561078157818061077d9061112f565b9250505b5b808061078d9061112f565b9150506106da565b5060008167ffffffffffffffff8111156107b2576107b1610bde565b5b6040519080825280602002602001820160405280156107eb57816020015b6107d8610a33565b8152602001906001900390816107d05790505b5090506000805b600180549050811015610935578460018281548110610814576108136110d1565b5b906000526020600020906002020160010154141561092257600181815481106108405761083f6110d1565b5b9060005260206000209060020201604051806040016040529081600082018054610869906111a7565b80601f0160208091040260200160405190810160405280929190818152602001828054610895906111a7565b80156108e25780601f106108b7576101008083540402835291602001916108e2565b820191906000526020600020905b8154815290600101906020018083116108c557829003601f168201915b50505050508152602001600182015481525050838381518110610908576109076110d1565b5b6020026020010181905250818061091e9061112f565b9250505b808061092d9061112f565b9150506107f2565b508194505050505090565b6000600454421015610987576040517f08c379a000000000000000000000000000000000000000000000000000000000815260040161097e90611291565b60405180910390fd5b600554421061099957600090506109aa565b426005546109a791906112b1565b90505b90565b8280546109b9906111a7565b90600052602060002090601f0160209004810192826109db5760008555610a22565b82601f106109f457805160ff1916838001178555610a22565b82800160010185558215610a22579182015b82811115610a21578251825591602001919060010190610a06565b5b509050610a2f9190610a4d565b5090565b604051806040016040528060608152602001600081525090565b5b80821115610a66576000816000905550600101610a4e565b5090565b6000604051905090565b600080fd5b600080fd5b6000819050919050565b610a9181610a7e565b8114610a9c57600080fd5b50565b600081359050610aae81610a88565b92915050565b600060208284031215610aca57610ac9610a74565b5b6000610ad884828501610a9f565b91505092915050565b610aea81610a7e565b82525050565b6000602082019050610b056000830184610ae1565b92915050565b600081519050919050565b600082825260208201905092915050565b60005b83811015610b45578082015181840152602081019050610b2a565b83811115610b54576000848401525b50505050565b6000601f19601f8301169050919050565b6000610b7682610b0b565b610b808185610b16565b9350610b90818560208601610b27565b610b9981610b5a565b840191505092915050565b60006040820190508181036000830152610bbe8185610b6b565b9050610bcd6020830184610ae1565b9392505050565b600080fd5b600080fd5b7f4e487b7100000000000000000000000000000000000000000000000000000000600052604160045260246000fd5b610c1682610b5a565b810181811067ffffffffffffffff82111715610c3557610c34610bde565b5b80604052505050565b6000610c48610a6a565b9050610c548282610c0d565b919050565b600067ffffffffffffffff821115610c7457610c73610bde565b5b610c7d82610b5a565b9050602081019050919050565b82818337600083830152505050565b6000610cac610ca784610c59565b610c3e565b905082815260208101848484011115610cc857610cc7610bd9565b5b610cd3848285610c8a565b509392505050565b600082601f830112610cf057610cef610bd4565b5b8135610d00848260208601610c99565b91505092915050565b600060208284031215610d1f57610d1e610a74565b5b600082013567ffffffffffffffff811115610d3d57610d3c610a79565b5b610d4984828501610cdb565b91505092915050565b600081519050919050565b600082825260208201905092915050565b6000819050602082019050919050565b600082825260208201905092915050565b6000610d9a82610b0b565b610da48185610d7e565b9350610db4818560208601610b27565b610dbd81610b5a565b840191505092915050565b610dd181610a7e565b82525050565b60006040830160008301518482036000860152610df48282610d8f565b9150506020830151610e096020860182610dc8565b508091505092915050565b6000610e208383610dd7565b905092915050565b6000602082019050919050565b6000610e4082610d52565b610e4a8185610d5d565b935083602082028501610e5c85610d6e565b8060005b85811015610e985784840389528151610e798582610e14565b9450610e8483610e28565b925060208a01995050600181019050610e60565b50829750879550505050505092915050565b60006020820190508181036000830152610ec48184610e35565b905092915050565b60008115159050919050565b610ee181610ecc565b82525050565b6000602082019050610efc6000830184610ed8565b92915050565b600073ffffffffffffffffffffffffffffffffffffffff82169050919050565b6000610f2d82610f02565b9050919050565b610f3d81610f22565b8114610f4857600080fd5b50565b600081359050610f5a81610f34565b92915050565b600060208284031215610f7657610f75610a74565b5b6000610f8484828501610f4b565b91505092915050565b7f596f75206861766520616c726561647920766f7465642e000000000000000000600082015250565b6000610fc3601783610b16565b9150610fce82610f8d565b602082019050919050565b60006020820190508181036000830152610ff281610fb6565b9050919050565b7f496e76616c69642063616e64696461746520696e6465782e0000000000000000600082015250565b600061102f601883610b16565b915061103a82610ff9565b602082019050919050565b6000602082019050818103600083015261105e81611022565b9050919050565b7f566f74696e6720706572696f642068617320656e646564000000000000000000600082015250565b600061109b601783610b16565b91506110a682611065565b602082019050919050565b600060208201905081810360008301526110ca8161108e565b9050919050565b7f4e487b7100000000000000000000000000000000000000000000000000000000600052603260045260246000fd5b7f4e487b7100000000000000000000000000000000000000000000000000000000600052601160045260246000fd5b600061113a82610a7e565b91507fffffffffffffffffffffffffffffffffffffffffffffffffffffffffffffffff82141561116d5761116c611100565b5b600182019050919050565b7f4e487b7100000000000000000000000000000000000000000000000000000000600052602260045260246000fd5b600060028204905060018216806111bf57607f821691505b602082108114156111d3576111d2611178565b5b50919050565b7f43616c6c6572206973206e6f7420746865206f776e6572000000000000000000600082015250565b600061120f601783610b16565b915061121a826111d9565b602082019050919050565b6000602082019050818103600083015261123e81611202565b9050919050565b7f566f74696e6720686173206e6f742073746172746564207965742e0000000000600082015250565b600061127b601b83610b16565b915061128682611245565b602082019050919050565b600060208201905081810360008301526112aa8161126e565b9050919050565b60006112bc82610a7e565b91506112c783610a7e565b9250828210156112da576112d9611100565b5b82820390509291505056fea264697066735822122024402332bb2827a5c267a5fb0830f4970bf24f0a6efa990446bae348f880004c64736f6c634300080b0033",
  "linkReferences": {},
  "deployedLinkReferences": {}
}